:030000000208678C
:0C086700787FE4F6D8FD75810902087363
:10082A007E00D3EF9400EE940040147D6E7C00EDC0
:0F083A001D70011CED4C70F7EF1F70E61E80E380
:01084900228C
:10084A008F09E5096016C2B0C2B17FF412082AD234
:0D085A00B0D2B17FF412082A150980E62201
:03000300020800F0
:10080000C0E0C0D075D000C2AFE508640A60020540
:1008100008AF0812084A7F3212082AE508B40A0312
:0A082000750800D2AFD0D0D0E0324E
:08087300D2AFD2A8C28880FEBA
:00000001FF
