:03000000020920D2
:0C092000787FE4F6D8FD758130020800F5
:0C092C00221221117FBFDFEFF7FBFDFE60
:1008DD00EBFF3395E0FE74302FF58274093EF583FE
:0608ED00E493F590AF0258
:1008F3007DC8AC051DEC6010E4FEEEC39F50F3E42D
:08090300FC0CBC78FC0E80F234
:01090B0022C9
:10090C007E0AAD061EED600BE4FFEFC3947850F247
:03091C000F80F752
:01091F0022B5
:10080000E4F5087A0375907F75B0F0A9B053013014
:10081000E9643060F312090C75B0F0A9B0530130EF
:10082000E9643060E3893043010389B0E5B05403E3
:10083000F94230C374339530F53075B0F0E4FFEF12
:1008400090092C93B530048F0A80040FBF04F0E5A3
:100850000A1460121460131460102403700C0ABA96
:1008600006087A018004DA027A05EA24FE6012148E
:100870006014146016146018240470177580FE80CC
:10088000127580FD800D7580FB80087580F78003F0
:100890007580EFE5086401701BC3EB648094885099
:1008A000131208DDBB07027BFFE5B05430F9B93005
:1008B000030B80E5E5086003020808C3EB6480943D
:1008C0008840030208081208DDEB70027B08E5B0DF
:0D08D0005430F9643060030208081B80DE1C
:00000001FF
