:03000000020A6F82
:0C0A6F00787FE4F6D8FD75813E02080097
:0B0A8600303132333435363738390058
:0409E1007F057E0010
:1009E500EF1FAA0670011E4A60147C007D6ED3EDD0
:0E09F5009400EC940040E9ED1D70F31C80F0BE
:010A030022D0
:100A3C00859036C2A0D2A1D2A200000000E590336E
:090A4C009200C2A2853690A200BE
:010A5500227E
:100A0400120A3C40FBC2A0C2A1C2A200008F900007
:0C0A1400000000D2A200000000C2A222DC
:0B0A7B007F01120A040F7E000209E553
:100A2000120A3C40FBD2A0C2A1C2A200008F9000DB
:0C0A3000000000D2A200000000C2A222C0
:1009B7001209E17F01120A041209E17F06120A04F3
:1009C7001F7E001209E57F0C120A041209E17F3825
:0A09D700120A047F0F7E000209E5FA
:100A5600E4FB7F80120A0474252BF8E6FF60091276
:080A66000A201209E10B80EFE8
:010A6E002265
:03000B00020A9155
:090A9100053D758C3C758AB032FC
:03001B00020A9A3C
:030A9A00B2A332D2
:10097500C28CE535D394804014E53870100522E526
:100985002270020521E4F5377538018019E535D364
:100995009480501BE53770170522E522700205216A
:1009A500753701E4F538D2A60000000000C2A6D2D2
:0209B5008C2292
:100800007F0A7E001209E51209B7120A7B7F027E79
:10081000001209E5E4F53DF537F538F53CAF3C0548
:100820003C74252FF87666AF3C053C74252FF8768E
:100830003AAF3C053C74252FF87620C2A6E4F5219A
:10084000F522C2A3C2A5758921758DF6758BF67543
:100850008C3C758AB0D2AFD2A9D28CD2ABD28ED218
:10086000A4C2A430A7FDD2A57580FF858035C2A59E
:10087000120975E53DC3940940E5C28CE4F53D8558
:100880002123852224F521F522753C03F53BF5371C
:10089000F538F539753A64E53A4539604EAC39AD0D
:1008A0003AAE23AF241209208F3E7E00AC39AD3A18
:1008B00012090EC3E5249FF524E5239EF523AE39E6
:1008C000AF3A7C007D0A1209208E398F3AE53E60EE
:1008D00003753B01E53B60BFE53E900A8693FFAEA2
:1008E0003C053C74252EF8A60780ACAF3C053C7453
:1008F000252FF87648AF3C053C74252FF8767A749E
:0E09000025253CF8E4F6120A56D28C02085F58
:10090E00EF8DF0A4A8F0CF8CF0A428CE8DF0A42EFD
:02091E00FE22B7
:10092000BC000BBE0029EF8DF084FFADF022E4CCBB
:10093000F875F008EF2FFFEE33FEEC33FCEE9DEC84
:10094000984005FCEE9DFE0FD5F0E9E4CEFD22EDCA
:10095000F8F5F0EE8420D21CFEADF075F008EF2F14
:10096000FFED33FD4007985006D5F0F222C398FD05
:050970000FD5F0EA22A2
:00000001FF
