:0300000002096B87
:0C096B00787FE4F6D8FD7581260209773C
:1008F00000010203040506070809000000000000CB
:1009000000010203040506070809FBFDFAFFD10DEB
:0709100021726F72724500B5
:0F095B00EFD394004009E4FE0EBE6EFC1F80F146
:01096A00226A
:1009470075A0FFC297D296C2957F0112095BD29517
:040957002087ED22E6
:070932007FCF1209397F0499
:0E0939008FA0C297C296C295120947D295228E
:0D091700E47B0AFAF9F81208ACEB2430FF7B
:0E0924008FA0D297C296C295120947D2952293
:100864007512FFD2957F381209397F0C1209397F2E
:10087400061209397F801209397F01120939E4F51A
:1008840025F526F518F517F516F515F51CF51BF5E0
:100894001AF519F520F51FF51EF51DF524F523F5B8
:0808A40022F521F508F51422EC
:1000030075B0FEE5B064FE70030200E97F141209C7
:100013005BE5B064FE6028E5B054F0F51124906010
:100023001B24C0601224E0600924F07012E4F5126E
:10003300800D75120180087512028003751203E5A5
:10004300B0B4FEFBE50870427F0AFEFDFCAB18AAC4
:1000530017A916A815120731A804A905AA06AB0704
:10006300AF12EF3395E0FE74F02FF58274083EF57E
:1000730083E493FFE4FCFDFEEB2FF518EE3AF5174E
:10008300ED39F516EC38F5158041E47F0AFEFDFCE9
:10009300AB1CAA1BA91AA819120731A804A905AAFF
:1000A30006AB07AF12EF3395E0FE74F02FF58274C1
:1000B300083EF583E493FFE4FCFDFEEB2FF51CEE15
:1000C3003AF51BED39F51AEC38F519AF12EF339504
:1000D300E0FE74002FF58274093EF583E493F52561
:1000E3002430FF12092475B0FDE5B064FD700302EE
:1000F30001CF7F0512095BE5B064FD6028E5B054CC
:10010300F0F5112490601B24C0601224E0600924E0
:10011300F07012751204800D7512058008751206B1
:100123008003751207E5B0B4FDFBE50870427F0A52
:10013300FEFDFCAB18AA17A916A815120731A804CF
:10014300A905AA06AB07AF12EF3395E0FE74F02FB3
:10015300F58274083EF583E493FFE4FCFDFEEB2F88
:10016300F518EE3AF517ED39F516EC38F51580412B
:10017300E47F0AFEFDFCAB1CAA1BA91AA8191207EF
:1001830031A804A905AA06AB07AF12EF3395E0FE29
:1001930074F02FF58274083EF583E493FFE4FCFDCD
:1001A300FEEB2FF51CEE3AF51BED39F51AEC38F59D
:1001B30019AF12EF3395E0FE74002FF58274093EF8
:1001C300F583E493F5252430FF12092475B0FBE58C
:1001D300B064FB70030202DE7F0512095BE5B064C5
:1001E300FB6028E5B054F0F5112490601B24C06037
:1001F3001224E0600924F07012751208800D751244
:1002030009800875120A800375120BE5B0B4FBFB75
:10021300E51264086009E512640960030202ABE5B4
:100223000870427F0AFEFDFCAB18AA17A916A81591
:10023300120731A804A905AA06AB07AF12EF33953D
:10024300E0FE74F02FF58274083EF583E493FFE437
:10025300FCFDFEEB2FF518EE3AF517ED39F516EC2C
:1002630038F515805BE47F0AFEFDFCAB1CAA1BA9D5
:100273001AA819120731A804A905AA06AB07AF12D9
:10028300EF3395E0FE74F02FF58274083EF583E4B6
:1002930093FFE4FCFDFEEB2FF51CEE3AF51BED3965
:1002A300F51AEC38F5198018E512B40A0875080137
:1002B300751401800BE512B40B0675080175140261
:1002C300AF12EF3395E0FE74002FF58274093EF50B
:1002D30083E493F5252430FF12092475B0F7E5B0C4
:1002E30064F770030207307F0512095BE5B064F71A
:1002F3006028E5B054F0F5112490601B24C060120F
:1003030024E0600924F0701275120C800D75120D33
:10031300800875120E800375120FE5B0B4F7FBE584
:100323001224F3602D14604A1460742403600302E2
:100333000730AF12EF3395E0FE74002FF582740996
:100343003EF583E4932430FF1209247508017514E4
:100353000322AF12EF3395E0FE74002FF582740988
:100363003EF583E4932430FF1209247508017514C4
:1003730004227F01120939E4F525F526F518F5174E
:10038300F516F515F51CF51BF51AF519F520F51FEE
:10039300F51EF51DF524F523F522F52102072C752D
:1003A3002601E51464017060120932E518251CF575
:1003B30020E517351BF51FE516351AF51EE515352E
:1003C30019F51DAF20AE1FAD1EAC1DEC4D4E4F6099
:1003D3001E120917AF20AE1FAD1EAC1DE47B0AFA37
:1003E300F9F81208AC8F208E1F8D1E8C1D80D47FD0
:1003F3003D120924E4F518F517F516F515F51CF566
:100403001BF51AF51902072CE514640260030204B4
:10041300CC120932C3E518951CFFE517951BFEE5C1
:1004230016951AFDE5159519FCE4FBFAF9F8C312C4
:100433000780501BC3E518951CF520E517951BF5A0
:100443001FE516951AF51EE5159519F51D8019C3B7
:10045300E51C9518F520E51B9517F51FE51A95166C
:10046300F51EE5199515F51DAF20AE1FAD1EAC1D8C
:10047300EC4D4E4F601E120917AF20AE1FAD1EACE0
:100483001DE47B0AFAF9F81208AC8F208E1F8D1E2B
:100493008C1D80D4C3E518951CE517951BFEE51646
:1004A300951AFDE5159519FC3350057F2D12092486
:1004B3007F3D120924E4F518F517F516F515F51C1B
:1004C300F51BF51AF51902072CE5146403705D1288
:1004D3000932AF1CAE1BAD1AAC19AB18AA17A9167B
:1004E300A8151207318022AF20AE1FAD1EAC1DEC44
:1004F3004D4E4F601E120917AF20AE1FAD1EAC1D2F
:10050300E47B0AFAF9F81208AC8F208E1F8D1E8C3B
:100513001D80D47F3D120924E4F518F517F516F56F
:1005230015F51CF51BF51AF51902072CE5146404DF
:100533006003020730120932AF1CAE1BAD1AAC19AF
:10054300EC4D4E4F7033F525AF25EF3395E0FE7438
:10055300102FF58274093EF583E493FF60071209B7
:1005630024052580E3E4F518F517F516F515F51CB4
:10057300F51BF51AF51902072CAB1CAA1BA91AA81F
:1005830019AF18AE17AD16AC151208ACAC00AD011F
:10059300AE02AF03EC4D4E4F6003020628AF1CAE14
:1005A3001BAD1AAC19EC4D4E4F607AAB1CAA1BA9BC
:1005B3001AA819AF18AE17AD16AC15801FAF20AE31
:1005C3001FAD1EAC1DEC4D4E4F601E120917AF2020
:1005D300AE1FAD1EAC1DE47B0AFAF9F81208AC8F0E
:1005E300208E1F8D1E8C1D80D4AB1CAA1BA91AA89C
:1005F30019AF18AE17AD16AC151208ACE4FBFAF937
:10060300F8C312078040057F301209247F3D120989
:1006130024E4F518F517F516F515F51CF51BF51A71
:10062300F51902072CAB1CAA1BA91AA819AF18AEFF
:1006330017AD16AC151208ACAC00AD01AE02AF039A
:10064300EC4D4E4F7003020730AF1CAE1BAD1AAC1E
:1006530019EC4D4E4F7003020730AB1CAA1BA91AAD
:10066300A819AF18AE17AD16AC151208ACAC00AD97
:1006730001AE02AF038022AF24AE23AD22AC21EC46
:100683004D4E4F601E120917AF24AE23AD22AC218D
:10069300E47B0AFAF9F81208AC8F248E238D228C9E
:1006A3002180D47F2E1209247F2E1209247F2E123B
:1006B3000924AB1CAA1BA91AA819AF18AE17AD16AB
:1006C300AC15801FAF20AE1FAD1EAC1DEC4D4E4FC1
:1006D300601E120917AF20AE1FAD1EAC1DE47B0ACE
:1006E300FAF9F81208AC8F208E1F8D1E8C1D80D452
:1006F300AB1CAA1BA91AA819AF18AE17AD16AC15D7
:100703001208ACE4FBFAF9F8C312078040057F3006
:100713001209247F3D120924E4F518F517F516F59F
:0E07230015F51CF51BF51AF519F508F514224D
:0809770012086412000380FB6A
:10073100E88FF0A4CC8BF0A42CFCE98EF0A42CFC67
:100741008AF0EDA42CFCEA8EF0A4CDA8F08BF0A4E5
:100751002DCC3825F0FDE98FF0A42CCD35F0FCEB44
:100761008EF0A4FEA9F0EB8FF0A4CFC5F02ECD3909
:0F077100FEE43CFCEAA42DCE35F0FDE43CFC2276
:1008AC00C2D5E830E70FB2D5E4C39BFBE49AFAE477
:1008BC0099F9E498F8EC30E717B2D51208E2120770
:1008CC00D2E4C39BFBE49AFAE499F9E498F8800328
:1008DC001207D230D50DE4C39FFFE49EFEE49DFDCC
:0408EC00E49CFC226A
:10078000EB9FF5F0EA9E42F0E99D42F0EC6480C8F0
:0607900064809845F02290
:1007960075F008758200EF2FFFEE33FECD33CDCC1A
:1007A60033CCC58233C5829BED9AEC99E58298409D
:1007B6000CF582EE9BFEED9AFDEC99FC0FD5F0D67A
:1007C600E4CEFBE4CDFAE4CCF9A88222B800C1B9A4
:1007D6000059BA002DEC8BF084CFCECDFCE5F0CBE2
:1007E600F97818EF2FFFEE33FEED33FDEC33FCEB1B
:1007F60033FB10D703994004EB99FB0FD8E5E4F9D6
:10080600FA227818EF2FFFEE33FEED33FDEC33FCC2
:10081600C933C910D7059BE99A4007EC9BFCE99AB6
:10082600F90FD8E0E4C9FAE4CCFB2275F010EF2FFB
:10083600FFEE33FEED33FDCC33CCC833C810D707FB
:100846009BEC9AE899400AED9BFDEC9AFCE899F836
:0E0856000FD5F0DAE4CDFBE4CCFAE4C8F922C9
:00000001FF
